{
  "contractName": "FoodToken",
  "abi": [
    {
      "inputs": [],
      "stateMutability": "nonpayable",
      "type": "constructor"
    },
    {
      "anonymous": false,
      "inputs": [
        {
          "indexed": true,
          "internalType": "address",
          "name": "owner",
          "type": "address"
        },
        {
          "indexed": true,
          "internalType": "address",
          "name": "spender",
          "type": "address"
        },
        {
          "indexed": false,
          "internalType": "uint256",
          "name": "value",
          "type": "uint256"
        }
      ],
      "name": "Approval",
      "type": "event"
    },
    {
      "anonymous": false,
      "inputs": [
        {
          "indexed": false,
          "internalType": "address",
          "name": "account",
          "type": "address"
        }
      ],
      "name": "Paused",
      "type": "event"
    },
    {
      "anonymous": false,
      "inputs": [
        {
          "indexed": true,
          "internalType": "bytes32",
          "name": "role",
          "type": "bytes32"
        },
        {
          "indexed": true,
          "internalType": "bytes32",
          "name": "previousAdminRole",
          "type": "bytes32"
        },
        {
          "indexed": true,
          "internalType": "bytes32",
          "name": "newAdminRole",
          "type": "bytes32"
        }
      ],
      "name": "RoleAdminChanged",
      "type": "event"
    },
    {
      "anonymous": false,
      "inputs": [
        {
          "indexed": true,
          "internalType": "bytes32",
          "name": "role",
          "type": "bytes32"
        },
        {
          "indexed": true,
          "internalType": "address",
          "name": "account",
          "type": "address"
        },
        {
          "indexed": true,
          "internalType": "address",
          "name": "sender",
          "type": "address"
        }
      ],
      "name": "RoleGranted",
      "type": "event"
    },
    {
      "anonymous": false,
      "inputs": [
        {
          "indexed": true,
          "internalType": "bytes32",
          "name": "role",
          "type": "bytes32"
        },
        {
          "indexed": true,
          "internalType": "address",
          "name": "account",
          "type": "address"
        },
        {
          "indexed": true,
          "internalType": "address",
          "name": "sender",
          "type": "address"
        }
      ],
      "name": "RoleRevoked",
      "type": "event"
    },
    {
      "anonymous": false,
      "inputs": [
        {
          "indexed": true,
          "internalType": "address",
          "name": "from",
          "type": "address"
        },
        {
          "indexed": true,
          "internalType": "address",
          "name": "to",
          "type": "address"
        },
        {
          "indexed": false,
          "internalType": "uint256",
          "name": "value",
          "type": "uint256"
        }
      ],
      "name": "Transfer",
      "type": "event"
    },
    {
      "anonymous": false,
      "inputs": [
        {
          "indexed": false,
          "internalType": "address",
          "name": "account",
          "type": "address"
        }
      ],
      "name": "Unpaused",
      "type": "event"
    },
    {
      "inputs": [],
      "name": "DEFAULT_ADMIN_ROLE",
      "outputs": [
        {
          "internalType": "bytes32",
          "name": "",
          "type": "bytes32"
        }
      ],
      "stateMutability": "view",
      "type": "function",
      "constant": true
    },
    {
      "inputs": [],
      "name": "DOMAIN_SEPARATOR",
      "outputs": [
        {
          "internalType": "bytes32",
          "name": "",
          "type": "bytes32"
        }
      ],
      "stateMutability": "view",
      "type": "function",
      "constant": true
    },
    {
      "inputs": [],
      "name": "MINTER_ROLE",
      "outputs": [
        {
          "internalType": "bytes32",
          "name": "",
          "type": "bytes32"
        }
      ],
      "stateMutability": "view",
      "type": "function",
      "constant": true
    },
    {
      "inputs": [],
      "name": "PAUSER_ROLE",
      "outputs": [
        {
          "internalType": "bytes32",
          "name": "",
          "type": "bytes32"
        }
      ],
      "stateMutability": "view",
      "type": "function",
      "constant": true
    },
    {
      "inputs": [
        {
          "internalType": "address",
          "name": "owner",
          "type": "address"
        },
        {
          "internalType": "address",
          "name": "spender",
          "type": "address"
        }
      ],
      "name": "allowance",
      "outputs": [
        {
          "internalType": "uint256",
          "name": "",
          "type": "uint256"
        }
      ],
      "stateMutability": "view",
      "type": "function",
      "constant": true
    },
    {
      "inputs": [
        {
          "internalType": "address",
          "name": "spender",
          "type": "address"
        },
        {
          "internalType": "uint256",
          "name": "amount",
          "type": "uint256"
        }
      ],
      "name": "approve",
      "outputs": [
        {
          "internalType": "bool",
          "name": "",
          "type": "bool"
        }
      ],
      "stateMutability": "nonpayable",
      "type": "function"
    },
    {
      "inputs": [
        {
          "internalType": "address",
          "name": "account",
          "type": "address"
        }
      ],
      "name": "balanceOf",
      "outputs": [
        {
          "internalType": "uint256",
          "name": "",
          "type": "uint256"
        }
      ],
      "stateMutability": "view",
      "type": "function",
      "constant": true
    },
    {
      "inputs": [
        {
          "internalType": "uint256",
          "name": "amount",
          "type": "uint256"
        }
      ],
      "name": "burn",
      "outputs": [],
      "stateMutability": "nonpayable",
      "type": "function"
    },
    {
      "inputs": [
        {
          "internalType": "address",
          "name": "account",
          "type": "address"
        },
        {
          "internalType": "uint256",
          "name": "amount",
          "type": "uint256"
        }
      ],
      "name": "burnFrom",
      "outputs": [],
      "stateMutability": "nonpayable",
      "type": "function"
    },
    {
      "inputs": [],
      "name": "decimals",
      "outputs": [
        {
          "internalType": "uint8",
          "name": "",
          "type": "uint8"
        }
      ],
      "stateMutability": "view",
      "type": "function",
      "constant": true
    },
    {
      "inputs": [
        {
          "internalType": "address",
          "name": "spender",
          "type": "address"
        },
        {
          "internalType": "uint256",
          "name": "subtractedValue",
          "type": "uint256"
        }
      ],
      "name": "decreaseAllowance",
      "outputs": [
        {
          "internalType": "bool",
          "name": "",
          "type": "bool"
        }
      ],
      "stateMutability": "nonpayable",
      "type": "function"
    },
    {
      "inputs": [
        {
          "internalType": "bytes32",
          "name": "role",
          "type": "bytes32"
        }
      ],
      "name": "getRoleAdmin",
      "outputs": [
        {
          "internalType": "bytes32",
          "name": "",
          "type": "bytes32"
        }
      ],
      "stateMutability": "view",
      "type": "function",
      "constant": true
    },
    {
      "inputs": [
        {
          "internalType": "bytes32",
          "name": "role",
          "type": "bytes32"
        },
        {
          "internalType": "address",
          "name": "account",
          "type": "address"
        }
      ],
      "name": "grantRole",
      "outputs": [],
      "stateMutability": "nonpayable",
      "type": "function"
    },
    {
      "inputs": [
        {
          "internalType": "bytes32",
          "name": "role",
          "type": "bytes32"
        },
        {
          "internalType": "address",
          "name": "account",
          "type": "address"
        }
      ],
      "name": "hasRole",
      "outputs": [
        {
          "internalType": "bool",
          "name": "",
          "type": "bool"
        }
      ],
      "stateMutability": "view",
      "type": "function",
      "constant": true
    },
    {
      "inputs": [
        {
          "internalType": "address",
          "name": "spender",
          "type": "address"
        },
        {
          "internalType": "uint256",
          "name": "addedValue",
          "type": "uint256"
        }
      ],
      "name": "increaseAllowance",
      "outputs": [
        {
          "internalType": "bool",
          "name": "",
          "type": "bool"
        }
      ],
      "stateMutability": "nonpayable",
      "type": "function"
    },
    {
      "inputs": [],
      "name": "name",
      "outputs": [
        {
          "internalType": "string",
          "name": "",
          "type": "string"
        }
      ],
      "stateMutability": "view",
      "type": "function",
      "constant": true
    },
    {
      "inputs": [
        {
          "internalType": "address",
          "name": "owner",
          "type": "address"
        }
      ],
      "name": "nonces",
      "outputs": [
        {
          "internalType": "uint256",
          "name": "",
          "type": "uint256"
        }
      ],
      "stateMutability": "view",
      "type": "function",
      "constant": true
    },
    {
      "inputs": [],
      "name": "paused",
      "outputs": [
        {
          "internalType": "bool",
          "name": "",
          "type": "bool"
        }
      ],
      "stateMutability": "view",
      "type": "function",
      "constant": true
    },
    {
      "inputs": [
        {
          "internalType": "address",
          "name": "owner",
          "type": "address"
        },
        {
          "internalType": "address",
          "name": "spender",
          "type": "address"
        },
        {
          "internalType": "uint256",
          "name": "value",
          "type": "uint256"
        },
        {
          "internalType": "uint256",
          "name": "deadline",
          "type": "uint256"
        },
        {
          "internalType": "uint8",
          "name": "v",
          "type": "uint8"
        },
        {
          "internalType": "bytes32",
          "name": "r",
          "type": "bytes32"
        },
        {
          "internalType": "bytes32",
          "name": "s",
          "type": "bytes32"
        }
      ],
      "name": "permit",
      "outputs": [],
      "stateMutability": "nonpayable",
      "type": "function"
    },
    {
      "inputs": [
        {
          "internalType": "bytes32",
          "name": "role",
          "type": "bytes32"
        },
        {
          "internalType": "address",
          "name": "account",
          "type": "address"
        }
      ],
      "name": "renounceRole",
      "outputs": [],
      "stateMutability": "nonpayable",
      "type": "function"
    },
    {
      "inputs": [
        {
          "internalType": "bytes32",
          "name": "role",
          "type": "bytes32"
        },
        {
          "internalType": "address",
          "name": "account",
          "type": "address"
        }
      ],
      "name": "revokeRole",
      "outputs": [],
      "stateMutability": "nonpayable",
      "type": "function"
    },
    {
      "inputs": [
        {
          "internalType": "bytes4",
          "name": "interfaceId",
          "type": "bytes4"
        }
      ],
      "name": "supportsInterface",
      "outputs": [
        {
          "internalType": "bool",
          "name": "",
          "type": "bool"
        }
      ],
      "stateMutability": "view",
      "type": "function",
      "constant": true
    },
    {
      "inputs": [],
      "name": "symbol",
      "outputs": [
        {
          "internalType": "string",
          "name": "",
          "type": "string"
        }
      ],
      "stateMutability": "view",
      "type": "function",
      "constant": true
    },
    {
      "inputs": [],
      "name": "totalSupply",
      "outputs": [
        {
          "internalType": "uint256",
          "name": "",
          "type": "uint256"
        }
      ],
      "stateMutability": "view",
      "type": "function",
      "constant": true
    },
    {
      "inputs": [
        {
          "internalType": "address",
          "name": "to",
          "type": "address"
        },
        {
          "internalType": "uint256",
          "name": "amount",
          "type": "uint256"
        }
      ],
      "name": "transfer",
      "outputs": [
        {
          "internalType": "bool",
          "name": "",
          "type": "bool"
        }
      ],
      "stateMutability": "nonpayable",
      "type": "function"
    },
    {
      "inputs": [
        {
          "internalType": "address",
          "name": "from",
          "type": "address"
        },
        {
          "internalType": "address",
          "name": "to",
          "type": "address"
        },
        {
          "internalType": "uint256",
          "name": "amount",
          "type": "uint256"
        }
      ],
      "name": "transferFrom",
      "outputs": [
        {
          "internalType": "bool",
          "name": "",
          "type": "bool"
        }
      ],
      "stateMutability": "nonpayable",
      "type": "function"
    },
    {
      "inputs": [],
      "name": "pause",
      "outputs": [],
      "stateMutability": "nonpayable",
      "type": "function"
    },
    {
      "inputs": [],
      "name": "unpause",
      "outputs": [],
      "stateMutability": "nonpayable",
      "type": "function"
    },
    {
      "inputs": [
        {
          "internalType": "address",
          "name": "to",
          "type": "address"
        },
        {
          "internalType": "uint256",
          "name": "amount",
          "type": "uint256"
        }
      ],
      "name": "mint",
      "outputs": [],
      "stateMutability": "nonpayable",
      "type": "function"
    }
  ],
  "bytecode": "0x6101406040523480156200001257600080fd5b506040518060400160405280600981526020017f466f6f64546f6b656e0000000000000000000000000000000000000000000000815250806040518060400160405280600181526020017f31000000000000000000000000000000000000000000000000000000000000008152506040518060400160405280600981526020017f466f6f64546f6b656e00000000000000000000000000000000000000000000008152506040518060400160405280600381526020017f46544b00000000000000000000000000000000000000000000000000000000008152508160039081620000fd91906200067a565b5080600490816200010f91906200067a565b5050506000600560006101000a81548160ff02191690831515021790555060008280519060200120905060008280519060200120905060007f8b73c3c69bb8fe3d512ecc4cf759cc79239f7b179b0ffacaa9a75d522b39400f90508260e081815250508161010081815250504660a08181525050620001968184846200025f60201b60201c565b608081815250503073ffffffffffffffffffffffffffffffffffffffff1660c08173ffffffffffffffffffffffffffffffffffffffff1681525050806101208181525050505050505050620001f56000801b336200029b60201b60201c565b620002277f65d7a28e3265b37a6474929f336521b332c1681b933f6cb9f3376673440d862a336200029b60201b60201c565b620002597f9f2df0fed2c77648de5860a4cc508cd0818c85b8b8a1ab4ceeef8d981c8956a6336200029b60201b60201c565b6200082f565b600083838346306040516020016200027c959493929190620007d2565b6040516020818303038152906040528051906020012090509392505050565b620002ad82826200038d60201b60201c565b620003895760016006600084815260200190815260200160002060000160008373ffffffffffffffffffffffffffffffffffffffff1673ffffffffffffffffffffffffffffffffffffffff16815260200190815260200160002060006101000a81548160ff0219169083151502179055506200032e620003f860201b60201c565b73ffffffffffffffffffffffffffffffffffffffff168173ffffffffffffffffffffffffffffffffffffffff16837f2f8788117e7eff1d82e926ec794901d17c78024a50270940304540a733656f0d60405160405180910390a45b5050565b60006006600084815260200190815260200160002060000160008373ffffffffffffffffffffffffffffffffffffffff1673ffffffffffffffffffffffffffffffffffffffff16815260200190815260200160002060009054906101000a900460ff16905092915050565b600033905090565b600081519050919050565b7f4e487b7100000000000000000000000000000000000000000000000000000000600052604160045260246000fd5b7f4e487b7100000000000000000000000000000000000000000000000000000000600052602260045260246000fd5b600060028204905060018216806200048257607f821691505b6020821081036200049857620004976200043a565b5b50919050565b60008190508160005260206000209050919050565b60006020601f8301049050919050565b600082821b905092915050565b600060088302620005027fffffffffffffffffffffffffffffffffffffffffffffffffffffffffffffffff82620004c3565b6200050e8683620004c3565b95508019841693508086168417925050509392505050565b6000819050919050565b6000819050919050565b60006200055b620005556200054f8462000526565b62000530565b62000526565b9050919050565b6000819050919050565b62000577836200053a565b6200058f620005868262000562565b848454620004d0565b825550505050565b600090565b620005a662000597565b620005b38184846200056c565b505050565b5b81811015620005db57620005cf6000826200059c565b600181019050620005b9565b5050565b601f8211156200062a57620005f4816200049e565b620005ff84620004b3565b810160208510156200060f578190505b620006276200061e85620004b3565b830182620005b8565b50505b505050565b600082821c905092915050565b60006200064f600019846008026200062f565b1980831691505092915050565b60006200066a83836200063c565b9150826002028217905092915050565b620006858262000400565b67ffffffffffffffff811115620006a157620006a06200040b565b5b620006ad825462000469565b620006ba828285620005df565b600060209050601f831160018114620006f25760008415620006dd578287015190505b620006e985826200065c565b86555062000759565b601f19841662000702866200049e565b60005b828110156200072c5784890151825560018201915060208501945060208101905062000705565b868310156200074c578489015162000748601f8916826200063c565b8355505b6001600288020188555050505b505050505050565b6000819050919050565b620007768162000761565b82525050565b620007878162000526565b82525050565b600073ffffffffffffffffffffffffffffffffffffffff82169050919050565b6000620007ba826200078d565b9050919050565b620007cc81620007ad565b82525050565b600060a082019050620007e960008301886200076b565b620007f860208301876200076b565b6200080760408301866200076b565b6200081660608301856200077c565b620008256080830184620007c1565b9695505050505050565b60805160a05160c05160e05161010051610120516134466200087f600039600061147b015260006114bd0152600061149c015260006113d1015260006114270152600061145001526134466000f3fe608060405234801561001057600080fd5b50600436106101cf5760003560e01c80635c975abb11610104578063a217fddf116100a2578063d539139311610071578063d539139314610542578063d547741f14610560578063dd62ed3e1461057c578063e63ab1e9146105ac576101cf565b8063a217fddf146104a8578063a457c2d7146104c6578063a9059cbb146104f6578063d505accf14610526576101cf565b80637ecebe00116100de5780637ecebe00146104205780638456cb591461045057806391d148541461045a57806395d89b411461048a576101cf565b80635c975abb146103b657806370a08231146103d457806379cc679014610404576101cf565b8063313ce56711610171578063395093511161014b57806339509351146103445780633f4ba83a1461037457806340c10f191461037e57806342966c681461039a576101cf565b8063313ce567146102ec5780633644e5151461030a57806336568abe14610328576101cf565b806318160ddd116101ad57806318160ddd1461025257806323b872dd14610270578063248a9ca3146102a05780632f2ff15d146102d0576101cf565b806301ffc9a7146101d457806306fdde0314610204578063095ea7b314610222575b600080fd5b6101ee60048036038101906101e9919061212e565b6105ca565b6040516101fb9190612176565b60405180910390f35b61020c610644565b6040516102199190612221565b60405180910390f35b61023c600480360381019061023791906122d7565b6106d6565b6040516102499190612176565b60405180910390f35b61025a6106f9565b6040516102679190612326565b60405180910390f35b61028a60048036038101906102859190612341565b610703565b6040516102979190612176565b60405180910390f35b6102ba60048036038101906102b591906123ca565b610732565b6040516102c79190612406565b60405180910390f35b6102ea60048036038101906102e59190612421565b610752565b005b6102f4610773565b604051610301919061247d565b60405180910390f35b61031261077c565b60405161031f9190612406565b60405180910390f35b610342600480360381019061033d9190612421565b61078b565b005b61035e600480360381019061035991906122d7565b61080e565b60405161036b9190612176565b60405180910390f35b61037c610845565b005b610398600480360381019061039391906122d7565b61087a565b005b6103b460048036038101906103af9190612498565b6108b3565b005b6103be6108c7565b6040516103cb9190612176565b60405180910390f35b6103ee60048036038101906103e991906124c5565b6108de565b6040516103fb9190612326565b60405180910390f35b61041e600480360381019061041991906122d7565b610926565b005b61043a600480360381019061043591906124c5565b610946565b6040516104479190612326565b60405180910390f35b610458610996565b005b610474600480360381019061046f9190612421565b6109cb565b6040516104819190612176565b60405180910390f35b610492610a36565b60405161049f9190612221565b60405180910390f35b6104b0610ac8565b6040516104bd9190612406565b60405180910390f35b6104e060048036038101906104db91906122d7565b610acf565b6040516104ed9190612176565b60405180910390f35b610510600480360381019061050b91906122d7565b610b46565b60405161051d9190612176565b60405180910390f35b610540600480360381019061053b919061251e565b610b69565b005b61054a610cab565b6040516105579190612406565b60405180910390f35b61057a60048036038101906105759190612421565b610ccf565b005b610596600480360381019061059191906125c0565b610cf0565b6040516105a39190612326565b60405180910390f35b6105b4610d77565b6040516105c19190612406565b60405180910390f35b60007f7965db0b000000000000000000000000000000000000000000000000000000007bffffffffffffffffffffffffffffffffffffffffffffffffffffffff1916827bffffffffffffffffffffffffffffffffffffffffffffffffffffffff1916148061063d575061063c82610d9b565b5b9050919050565b6060600380546106539061262f565b80601f016020809104026020016040519081016040528092919081815260200182805461067f9061262f565b80156106cc5780601f106106a1576101008083540402835291602001916106cc565b820191906000526020600020905b8154815290600101906020018083116106af57829003601f168201915b5050505050905090565b6000806106e1610e05565b90506106ee818585610e0d565b600191505092915050565b6000600254905090565b60008061070e610e05565b905061071b858285610fd6565b610726858585611062565b60019150509392505050565b600060066000838152602001908152602001600020600101549050919050565b61075b82610732565b610764816112d8565b61076e83836112ec565b505050565b60006012905090565b60006107866113cd565b905090565b610793610e05565b73ffffffffffffffffffffffffffffffffffffffff168173ffffffffffffffffffffffffffffffffffffffff1614610800576040517f08c379a00000000000000000000000000000000000000000000000000000000081526004016107f7906126d2565b60405180910390fd5b61080a82826114e7565b5050565b600080610819610e05565b905061083a81858561082b8589610cf0565b6108359190612721565b610e0d565b600191505092915050565b7f65d7a28e3265b37a6474929f336521b332c1681b933f6cb9f3376673440d862a61086f816112d8565b6108776115c9565b50565b7f9f2df0fed2c77648de5860a4cc508cd0818c85b8b8a1ab4ceeef8d981c8956a66108a4816112d8565b6108ae838361162c565b505050565b6108c46108be610e05565b82611782565b50565b6000600560009054906101000a900460ff16905090565b60008060008373ffffffffffffffffffffffffffffffffffffffff1673ffffffffffffffffffffffffffffffffffffffff168152602001908152602001600020549050919050565b61093882610932610e05565b83610fd6565b6109428282611782565b5050565b600061098f600760008473ffffffffffffffffffffffffffffffffffffffff1673ffffffffffffffffffffffffffffffffffffffff16815260200190815260200160002061194f565b9050919050565b7f65d7a28e3265b37a6474929f336521b332c1681b933f6cb9f3376673440d862a6109c0816112d8565b6109c861195d565b50565b60006006600084815260200190815260200160002060000160008373ffffffffffffffffffffffffffffffffffffffff1673ffffffffffffffffffffffffffffffffffffffff16815260200190815260200160002060009054906101000a900460ff16905092915050565b606060048054610a459061262f565b80601f0160208091040260200160405190810160405280929190818152602001828054610a719061262f565b8015610abe5780601f10610a9357610100808354040283529160200191610abe565b820191906000526020600020905b815481529060010190602001808311610aa157829003601f168201915b5050505050905090565b6000801b81565b600080610ada610e05565b90506000610ae88286610cf0565b905083811015610b2d576040517f08c379a0000000000000000000000000000000000000000000000000000000008152600401610b24906127c7565b60405180910390fd5b610b3a8286868403610e0d565b60019250505092915050565b600080610b51610e05565b9050610b5e818585611062565b600191505092915050565b83421115610bac576040517f08c379a0000000000000000000000000000000000000000000000000000000008152600401610ba390612833565b60405180910390fd5b60007f6e71edae12b1b97f4d1f60370fef10105fa2faae0126114a169c64845d6126c9888888610bdb8c6119c0565b89604051602001610bf196959493929190612862565b6040516020818303038152906040528051906020012090506000610c1482611a1e565b90506000610c2482878787611a38565b90508973ffffffffffffffffffffffffffffffffffffffff168173ffffffffffffffffffffffffffffffffffffffff1614610c94576040517f08c379a0000000000000000000000000000000000000000000000000000000008152600401610c8b9061290f565b60405180910390fd5b610c9f8a8a8a610e0d565b50505050505050505050565b7f9f2df0fed2c77648de5860a4cc508cd0818c85b8b8a1ab4ceeef8d981c8956a681565b610cd882610732565b610ce1816112d8565b610ceb83836114e7565b505050565b6000600160008473ffffffffffffffffffffffffffffffffffffffff1673ffffffffffffffffffffffffffffffffffffffff16815260200190815260200160002060008373ffffffffffffffffffffffffffffffffffffffff1673ffffffffffffffffffffffffffffffffffffffff16815260200190815260200160002054905092915050565b7f65d7a28e3265b37a6474929f336521b332c1681b933f6cb9f3376673440d862a81565b60007f01ffc9a7000000000000000000000000000000000000000000000000000000007bffffffffffffffffffffffffffffffffffffffffffffffffffffffff1916827bffffffffffffffffffffffffffffffffffffffffffffffffffffffff1916149050919050565b600033905090565b600073ffffffffffffffffffffffffffffffffffffffff168373ffffffffffffffffffffffffffffffffffffffff1603610e7c576040517f08c379a0000000000000000000000000000000000000000000000000000000008152600401610e73906129a1565b60405180910390fd5b600073ffffffffffffffffffffffffffffffffffffffff168273ffffffffffffffffffffffffffffffffffffffff1603610eeb576040517f08c379a0000000000000000000000000000000000000000000000000000000008152600401610ee290612a33565b60405180910390fd5b80600160008573ffffffffffffffffffffffffffffffffffffffff1673ffffffffffffffffffffffffffffffffffffffff16815260200190815260200160002060008473ffffffffffffffffffffffffffffffffffffffff1673ffffffffffffffffffffffffffffffffffffffff168152602001908152602001600020819055508173ffffffffffffffffffffffffffffffffffffffff168373ffffffffffffffffffffffffffffffffffffffff167f8c5be1e5ebec7d5bd14f71427d1e84f3dd0314c0f7b2291e5b200ac8c7c3b92583604051610fc99190612326565b60405180910390a3505050565b6000610fe28484610cf0565b90507fffffffffffffffffffffffffffffffffffffffffffffffffffffffffffffffff811461105c578181101561104e576040517f08c379a000000000000000000000000000000000000000000000000000000000815260040161104590612a9f565b60405180910390fd5b61105b8484848403610e0d565b5b50505050565b600073ffffffffffffffffffffffffffffffffffffffff168373ffffffffffffffffffffffffffffffffffffffff16036110d1576040517f08c379a00000000000000000000000000000000000000000000000000000000081526004016110c890612b31565b60405180910390fd5b600073ffffffffffffffffffffffffffffffffffffffff168273ffffffffffffffffffffffffffffffffffffffff1603611140576040517f08c379a000000000000000000000000000000000000000000000000000000000815260040161113790612bc3565b60405180910390fd5b61114b838383611a63565b60008060008573ffffffffffffffffffffffffffffffffffffffff1673ffffffffffffffffffffffffffffffffffffffff168152602001908152602001600020549050818110156111d1576040517f08c379a00000000000000000000000000000000000000000000000000000000081526004016111c890612c55565b60405180910390fd5b8181036000808673ffffffffffffffffffffffffffffffffffffffff1673ffffffffffffffffffffffffffffffffffffffff16815260200190815260200160002081905550816000808573ffffffffffffffffffffffffffffffffffffffff1673ffffffffffffffffffffffffffffffffffffffff168152602001908152602001600020600082825401925050819055508273ffffffffffffffffffffffffffffffffffffffff168473ffffffffffffffffffffffffffffffffffffffff167fddf252ad1be2c89b69c2b068fc378daa952ba7f163c4a11628f55a4df523b3ef846040516112bf9190612326565b60405180910390a36112d2848484611a7b565b50505050565b6112e9816112e4610e05565b611a80565b50565b6112f682826109cb565b6113c95760016006600084815260200190815260200160002060000160008373ffffffffffffffffffffffffffffffffffffffff1673ffffffffffffffffffffffffffffffffffffffff16815260200190815260200160002060006101000a81548160ff02191690831515021790555061136e610e05565b73ffffffffffffffffffffffffffffffffffffffff168173ffffffffffffffffffffffffffffffffffffffff16837f2f8788117e7eff1d82e926ec794901d17c78024a50270940304540a733656f0d60405160405180910390a45b5050565b60007f000000000000000000000000000000000000000000000000000000000000000073ffffffffffffffffffffffffffffffffffffffff163073ffffffffffffffffffffffffffffffffffffffff1614801561144957507f000000000000000000000000000000000000000000000000000000000000000046145b15611476577f000000000000000000000000000000000000000000000000000000000000000090506114e4565b6114e17f00000000000000000000000000000000000000000000000000000000000000007f00000000000000000000000000000000000000000000000000000000000000007f0000000000000000000000000000000000000000000000000000000000000000611b05565b90505b90565b6114f182826109cb565b156115c55760006006600084815260200190815260200160002060000160008373ffffffffffffffffffffffffffffffffffffffff1673ffffffffffffffffffffffffffffffffffffffff16815260200190815260200160002060006101000a81548160ff02191690831515021790555061156a610e05565b73ffffffffffffffffffffffffffffffffffffffff168173ffffffffffffffffffffffffffffffffffffffff16837ff6391f5c32d9c69d2a47ea670b442974b53935d1edc7fd64eb21e047a839171b60405160405180910390a45b5050565b6115d1611b3f565b6000600560006101000a81548160ff0219169083151502179055507f5db9ee0a495bf2e6ff9c91a7834c1ba4fdd244a5e8aa4e537bd38aeae4b073aa611615610e05565b6040516116229190612c75565b60405180910390a1565b600073ffffffffffffffffffffffffffffffffffffffff168273ffffffffffffffffffffffffffffffffffffffff160361169b576040517f08c379a000000000000000000000000000000000000000000000000000000000815260040161169290612cdc565b60405180910390fd5b6116a760008383611a63565b80600260008282546116b99190612721565b92505081905550806000808473ffffffffffffffffffffffffffffffffffffffff1673ffffffffffffffffffffffffffffffffffffffff168152602001908152602001600020600082825401925050819055508173ffffffffffffffffffffffffffffffffffffffff16600073ffffffffffffffffffffffffffffffffffffffff167fddf252ad1be2c89b69c2b068fc378daa952ba7f163c4a11628f55a4df523b3ef8360405161176a9190612326565b60405180910390a361177e60008383611a7b565b5050565b600073ffffffffffffffffffffffffffffffffffffffff168273ffffffffffffffffffffffffffffffffffffffff16036117f1576040517f08c379a00000000000000000000000000000000000000000000000000000000081526004016117e890612d6e565b60405180910390fd5b6117fd82600083611a63565b60008060008473ffffffffffffffffffffffffffffffffffffffff1673ffffffffffffffffffffffffffffffffffffffff16815260200190815260200160002054905081811015611883576040517f08c379a000000000000000000000000000000000000000000000000000000000815260040161187a90612e00565b60405180910390fd5b8181036000808573ffffffffffffffffffffffffffffffffffffffff1673ffffffffffffffffffffffffffffffffffffffff1681526020019081526020016000208190555081600260008282540392505081905550600073ffffffffffffffffffffffffffffffffffffffff168373ffffffffffffffffffffffffffffffffffffffff167fddf252ad1be2c89b69c2b068fc378daa952ba7f163c4a11628f55a4df523b3ef846040516119369190612326565b60405180910390a361194a83600084611a7b565b505050565b600081600001549050919050565b611965611b88565b6001600560006101000a81548160ff0219169083151502179055507f62e78cea01bee320cd4e420270b5ea74000d11b0c9f74754ebdbfc544b05a2586119a9610e05565b6040516119b69190612c75565b60405180910390a1565b600080600760008473ffffffffffffffffffffffffffffffffffffffff1673ffffffffffffffffffffffffffffffffffffffff1681526020019081526020016000209050611a0d8161194f565b9150611a1881611bd2565b50919050565b6000611a31611a2b6113cd565b83611be8565b9050919050565b6000806000611a4987878787611c1b565b91509150611a5681611cfd565b8192505050949350505050565b611a6b611b88565b611a76838383611e63565b505050565b505050565b611a8a82826109cb565b611b0157611a9781611e68565b611aa58360001c6020611e95565b604051602001611ab6929190612ef4565b6040516020818303038152906040526040517f08c379a0000000000000000000000000000000000000000000000000000000008152600401611af89190612221565b60405180910390fd5b5050565b60008383834630604051602001611b20959493929190612f2e565b6040516020818303038152906040528051906020012090509392505050565b611b476108c7565b611b86576040517f08c379a0000000000000000000000000000000000000000000000000000000008152600401611b7d90612fcd565b60405180910390fd5b565b611b906108c7565b15611bd0576040517f08c379a0000000000000000000000000000000000000000000000000000000008152600401611bc790613039565b60405180910390fd5b565b6001816000016000828254019250508190555050565b60008282604051602001611bfd9291906130c6565b60405160208183030381529060405280519060200120905092915050565b6000807f7fffffffffffffffffffffffffffffff5d576e7357a4501ddfe92f46681b20a08360001c1115611c56576000600391509150611cf4565b600060018787878760405160008152602001604052604051611c7b94939291906130fd565b6020604051602081039080840390855afa158015611c9d573d6000803e3d6000fd5b505050602060405103519050600073ffffffffffffffffffffffffffffffffffffffff168173ffffffffffffffffffffffffffffffffffffffff1603611ceb57600060019250925050611cf4565b80600092509250505b94509492505050565b60006004811115611d1157611d10613142565b5b816004811115611d2457611d23613142565b5b0315611e605760016004811115611d3e57611d3d613142565b5b816004811115611d5157611d50613142565b5b03611d91576040517f08c379a0000000000000000000000000000000000000000000000000000000008152600401611d88906131bd565b60405180910390fd5b60026004811115611da557611da4613142565b5b816004811115611db857611db7613142565b5b03611df8576040517f08c379a0000000000000000000000000000000000000000000000000000000008152600401611def90613229565b60405180910390fd5b60036004811115611e0c57611e0b613142565b5b816004811115611e1f57611e1e613142565b5b03611e5f576040517f08c379a0000000000000000000000000000000000000000000000000000000008152600401611e56906132bb565b60405180910390fd5b5b50565b505050565b6060611e8e8273ffffffffffffffffffffffffffffffffffffffff16601460ff16611e95565b9050919050565b606060006002836002611ea891906132db565b611eb29190612721565b67ffffffffffffffff811115611ecb57611eca61331d565b5b6040519080825280601f01601f191660200182016040528015611efd5781602001600182028036833780820191505090505b5090507f300000000000000000000000000000000000000000000000000000000000000081600081518110611f3557611f3461334c565b5b60200101907effffffffffffffffffffffffffffffffffffffffffffffffffffffffffffff1916908160001a9053507f780000000000000000000000000000000000000000000000000000000000000081600181518110611f9957611f9861334c565b5b60200101907effffffffffffffffffffffffffffffffffffffffffffffffffffffffffffff1916908160001a90535060006001846002611fd991906132db565b611fe39190612721565b90505b6001811115612083577f3031323334353637383961626364656600000000000000000000000000000000600f8616601081106120255761202461334c565b5b1a60f81b82828151811061203c5761203b61334c565b5b60200101907effffffffffffffffffffffffffffffffffffffffffffffffffffffffffffff1916908160001a905350600485901c94508061207c9061337b565b9050611fe6565b50600084146120c7576040517f08c379a00000000000000000000000000000000000000000000000000000000081526004016120be906133f0565b60405180910390fd5b8091505092915050565b600080fd5b60007fffffffff0000000000000000000000000000000000000000000000000000000082169050919050565b61210b816120d6565b811461211657600080fd5b50565b60008135905061212881612102565b92915050565b600060208284031215612144576121436120d1565b5b600061215284828501612119565b91505092915050565b60008115159050919050565b6121708161215b565b82525050565b600060208201905061218b6000830184612167565b92915050565b600081519050919050565b600082825260208201905092915050565b60005b838110156121cb5780820151818401526020810190506121b0565b60008484015250505050565b6000601f19601f8301169050919050565b60006121f382612191565b6121fd818561219c565b935061220d8185602086016121ad565b612216816121d7565b840191505092915050565b6000602082019050818103600083015261223b81846121e8565b905092915050565b600073ffffffffffffffffffffffffffffffffffffffff82169050919050565b600061226e82612243565b9050919050565b61227e81612263565b811461228957600080fd5b50565b60008135905061229b81612275565b92915050565b6000819050919050565b6122b4816122a1565b81146122bf57600080fd5b50565b6000813590506122d1816122ab565b92915050565b600080604083850312156122ee576122ed6120d1565b5b60006122fc8582860161228c565b925050602061230d858286016122c2565b9150509250929050565b612320816122a1565b82525050565b600060208201905061233b6000830184612317565b92915050565b60008060006060848603121561235a576123596120d1565b5b60006123688682870161228c565b93505060206123798682870161228c565b925050604061238a868287016122c2565b9150509250925092565b6000819050919050565b6123a781612394565b81146123b257600080fd5b50565b6000813590506123c48161239e565b92915050565b6000602082840312156123e0576123df6120d1565b5b60006123ee848285016123b5565b91505092915050565b61240081612394565b82525050565b600060208201905061241b60008301846123f7565b92915050565b60008060408385031215612438576124376120d1565b5b6000612446858286016123b5565b92505060206124578582860161228c565b9150509250929050565b600060ff82169050919050565b61247781612461565b82525050565b6000602082019050612492600083018461246e565b92915050565b6000602082840312156124ae576124ad6120d1565b5b60006124bc848285016122c2565b91505092915050565b6000602082840312156124db576124da6120d1565b5b60006124e98482850161228c565b91505092915050565b6124fb81612461565b811461250657600080fd5b50565b600081359050612518816124f2565b92915050565b600080600080600080600060e0888a03121561253d5761253c6120d1565b5b600061254b8a828b0161228c565b975050602061255c8a828b0161228c565b965050604061256d8a828b016122c2565b955050606061257e8a828b016122c2565b945050608061258f8a828b01612509565b93505060a06125a08a828b016123b5565b92505060c06125b18a828b016123b5565b91505092959891949750929550565b600080604083850312156125d7576125d66120d1565b5b60006125e58582860161228c565b92505060206125f68582860161228c565b9150509250929050565b7f4e487b7100000000000000000000000000000000000000000000000000000000600052602260045260246000fd5b6000600282049050600182168061264757607f821691505b60208210810361265a57612659612600565b5b50919050565b7f416363657373436f6e74726f6c3a2063616e206f6e6c792072656e6f756e636560008201527f20726f6c657320666f722073656c660000000000000000000000000000000000602082015250565b60006126bc602f8361219c565b91506126c782612660565b604082019050919050565b600060208201905081810360008301526126eb816126af565b9050919050565b7f4e487b7100000000000000000000000000000000000000000000000000000000600052601160045260246000fd5b600061272c826122a1565b9150612737836122a1565b925082820190508082111561274f5761274e6126f2565b5b92915050565b7f45524332303a2064656372656173656420616c6c6f77616e63652062656c6f7760008201527f207a65726f000000000000000000000000000000000000000000000000000000602082015250565b60006127b160258361219c565b91506127bc82612755565b604082019050919050565b600060208201905081810360008301526127e0816127a4565b9050919050565b7f45524332305065726d69743a206578706972656420646561646c696e65000000600082015250565b600061281d601d8361219c565b9150612828826127e7565b602082019050919050565b6000602082019050818103600083015261284c81612810565b9050919050565b61285c81612263565b82525050565b600060c08201905061287760008301896123f7565b6128846020830188612853565b6128916040830187612853565b61289e6060830186612317565b6128ab6080830185612317565b6128b860a0830184612317565b979650505050505050565b7f45524332305065726d69743a20696e76616c6964207369676e61747572650000600082015250565b60006128f9601e8361219c565b9150612904826128c3565b602082019050919050565b60006020820190508181036000830152612928816128ec565b9050919050565b7f45524332303a20617070726f76652066726f6d20746865207a65726f2061646460008201527f7265737300000000000000000000000000000000000000000000000000000000602082015250565b600061298b60248361219c565b91506129968261292f565b604082019050919050565b600060208201905081810360008301526129ba8161297e565b9050919050565b7f45524332303a20617070726f766520746f20746865207a65726f20616464726560008201527f7373000000000000000000000000000000000000000000000000000000000000602082015250565b6000612a1d60228361219c565b9150612a28826129c1565b604082019050919050565b60006020820190508181036000830152612a4c81612a10565b9050919050565b7f45524332303a20696e73756666696369656e7420616c6c6f77616e6365000000600082015250565b6000612a89601d8361219c565b9150612a9482612a53565b602082019050919050565b60006020820190508181036000830152612ab881612a7c565b9050919050565b7f45524332303a207472616e736665722066726f6d20746865207a65726f20616460008201527f6472657373000000000000000000000000000000000000000000000000000000602082015250565b6000612b1b60258361219c565b9150612b2682612abf565b604082019050919050565b60006020820190508181036000830152612b4a81612b0e565b9050919050565b7f45524332303a207472616e7366657220746f20746865207a65726f206164647260008201527f6573730000000000000000000000000000000000000000000000000000000000602082015250565b6000612bad60238361219c565b9150612bb882612b51565b604082019050919050565b60006020820190508181036000830152612bdc81612ba0565b9050919050565b7f45524332303a207472616e7366657220616d6f756e742065786365656473206260008201527f616c616e63650000000000000000000000000000000000000000000000000000602082015250565b6000612c3f60268361219c565b9150612c4a82612be3565b604082019050919050565b60006020820190508181036000830152612c6e81612c32565b9050919050565b6000602082019050612c8a6000830184612853565b92915050565b7f45524332303a206d696e7420746f20746865207a65726f206164647265737300600082015250565b6000612cc6601f8361219c565b9150612cd182612c90565b602082019050919050565b60006020820190508181036000830152612cf581612cb9565b9050919050565b7f45524332303a206275726e2066726f6d20746865207a65726f2061646472657360008201527f7300000000000000000000000000000000000000000000000000000000000000602082015250565b6000612d5860218361219c565b9150612d6382612cfc565b604082019050919050565b60006020820190508181036000830152612d8781612d4b565b9050919050565b7f45524332303a206275726e20616d6f756e7420657863656564732062616c616e60008201527f6365000000000000000000000000000000000000000000000000000000000000602082015250565b6000612dea60228361219c565b9150612df582612d8e565b604082019050919050565b60006020820190508181036000830152612e1981612ddd565b9050919050565b600081905092915050565b7f416363657373436f6e74726f6c3a206163636f756e7420000000000000000000600082015250565b6000612e61601783612e20565b9150612e6c82612e2b565b601782019050919050565b6000612e8282612191565b612e8c8185612e20565b9350612e9c8185602086016121ad565b80840191505092915050565b7f206973206d697373696e6720726f6c6520000000000000000000000000000000600082015250565b6000612ede601183612e20565b9150612ee982612ea8565b601182019050919050565b6000612eff82612e54565b9150612f0b8285612e77565b9150612f1682612ed1565b9150612f228284612e77565b91508190509392505050565b600060a082019050612f4360008301886123f7565b612f5060208301876123f7565b612f5d60408301866123f7565b612f6a6060830185612317565b612f776080830184612853565b9695505050505050565b7f5061757361626c653a206e6f7420706175736564000000000000000000000000600082015250565b6000612fb760148361219c565b9150612fc282612f81565b602082019050919050565b60006020820190508181036000830152612fe681612faa565b9050919050565b7f5061757361626c653a2070617573656400000000000000000000000000000000600082015250565b600061302360108361219c565b915061302e82612fed565b602082019050919050565b6000602082019050818103600083015261305281613016565b9050919050565b7f1901000000000000000000000000000000000000000000000000000000000000600082015250565b600061308f600283612e20565b915061309a82613059565b600282019050919050565b6000819050919050565b6130c06130bb82612394565b6130a5565b82525050565b60006130d182613082565b91506130dd82856130af565b6020820191506130ed82846130af565b6020820191508190509392505050565b600060808201905061311260008301876123f7565b61311f602083018661246e565b61312c60408301856123f7565b61313960608301846123f7565b95945050505050565b7f4e487b7100000000000000000000000000000000000000000000000000000000600052602160045260246000fd5b7f45434453413a20696e76616c6964207369676e61747572650000000000000000600082015250565b60006131a760188361219c565b91506131b282613171565b602082019050919050565b600060208201905081810360008301526131d68161319a565b9050919050565b7f45434453413a20696e76616c6964207369676e6174757265206c656e67746800600082015250565b6000613213601f8361219c565b915061321e826131dd565b602082019050919050565b6000602082019050818103600083015261324281613206565b9050919050565b7f45434453413a20696e76616c6964207369676e6174757265202773272076616c60008201527f7565000000000000000000000000000000000000000000000000000000000000602082015250565b60006132a560228361219c565b91506132b082613249565b604082019050919050565b600060208201905081810360008301526132d481613298565b9050919050565b60006132e6826122a1565b91506132f1836122a1565b92508282026132ff816122a1565b91508282048414831517613316576133156126f2565b5b5092915050565b7f4e487b7100000000000000000000000000000000000000000000000000000000600052604160045260246000fd5b7f4e487b7100000000000000000000000000000000000000000000000000000000600052603260045260246000fd5b6000613386826122a1565b915060008203613399576133986126f2565b5b600182039050919050565b7f537472696e67733a20686578206c656e67746820696e73756666696369656e74600082015250565b60006133da60208361219c565b91506133e5826133a4565b602082019050919050565b60006020820190508181036000830152613409816133cd565b905091905056fea26469706673582212205526a67cc02a014104eefcb664af575521e22cd6edfdef450cfd1da61793ce4764736f6c63430008110033",
  "immutableReferences": {
    "2076": [
      {
        "length": 32,
        "start": 5200
      }
    ],
    "2078": [
      {
        "length": 32,
        "start": 5159
      }
    ],
    "2080": [
      {
        "length": 32,
        "start": 5073
      }
    ],
    "2082": [
      {
        "length": 32,
        "start": 5276
      }
    ],
    "2084": [
      {
        "length": 32,
        "start": 5309
      }
    ],
    "2086": [
      {
        "length": 32,
        "start": 5243
      }
    ]
  },
  "source": "// SPDX-License-Identifier: Apache License 2.0\npragma solidity ^0.8.9;\n\nimport \"@openzeppelin/contracts/token/ERC20/ERC20.sol\";\nimport \"@openzeppelin/contracts/token/ERC20/extensions/ERC20Burnable.sol\";\nimport \"@openzeppelin/contracts/security/Pausable.sol\";\nimport \"@openzeppelin/contracts/access/AccessControl.sol\";\nimport \"@openzeppelin/contracts/token/ERC20/extensions/draft-ERC20Permit.sol\";\n\n/// @custom:security-contact senthilkumar.chandramohan@outlook.com\ncontract FoodToken is ERC20, ERC20Burnable, Pausable, AccessControl, ERC20Permit {\n    bytes32 public constant PAUSER_ROLE = keccak256(\"PAUSER_ROLE\");\n    bytes32 public constant MINTER_ROLE = keccak256(\"MINTER_ROLE\");\n\n    constructor() ERC20(\"FoodToken\", \"FTK\") ERC20Permit(\"FoodToken\") {\n        _grantRole(DEFAULT_ADMIN_ROLE, msg.sender);\n        _grantRole(PAUSER_ROLE, msg.sender);\n        _grantRole(MINTER_ROLE, msg.sender);\n    }\n\n    function pause() public onlyRole(PAUSER_ROLE) {\n        _pause();\n    }\n\n    function unpause() public onlyRole(PAUSER_ROLE) {\n        _unpause();\n    }\n\n    function mint(address to, uint256 amount) public onlyRole(MINTER_ROLE) {\n        _mint(to, amount);\n    }\n\n    function _beforeTokenTransfer(address from, address to, uint256 amount)\n        internal\n        whenNotPaused\n        override\n    {\n        super._beforeTokenTransfer(from, to, amount);\n    }\n}\n",
  "sourcePath": "D:\\Projects\\ETH\\food-token-smart-contract\\contracts\\FoodToken.sol",
  "compiler": {
    "name": "solc",
    "version": "0.8.17+commit.8df45f5f.Emscripten.clang"
  },
  "schemaVersion": "3.4.10",
  "updatedAt": "2023-02-03T17:37:21.195Z",
  "networkType": "ethereum",
  "devdoc": {
    "custom:security-contact": "senthilkumar.chandramohan@outlook.com",
    "kind": "dev",
    "methods": {
      "DOMAIN_SEPARATOR()": {
        "details": "See {IERC20Permit-DOMAIN_SEPARATOR}."
      },
      "allowance(address,address)": {
        "details": "See {IERC20-allowance}."
      },
      "approve(address,uint256)": {
        "details": "See {IERC20-approve}. NOTE: If `amount` is the maximum `uint256`, the allowance is not updated on `transferFrom`. This is semantically equivalent to an infinite approval. Requirements: - `spender` cannot be the zero address."
      },
      "balanceOf(address)": {
        "details": "See {IERC20-balanceOf}."
      },
      "burn(uint256)": {
        "details": "Destroys `amount` tokens from the caller. See {ERC20-_burn}."
      },
      "burnFrom(address,uint256)": {
        "details": "Destroys `amount` tokens from `account`, deducting from the caller's allowance. See {ERC20-_burn} and {ERC20-allowance}. Requirements: - the caller must have allowance for ``accounts``'s tokens of at least `amount`."
      },
      "decimals()": {
        "details": "Returns the number of decimals used to get its user representation. For example, if `decimals` equals `2`, a balance of `505` tokens should be displayed to a user as `5.05` (`505 / 10 ** 2`). Tokens usually opt for a value of 18, imitating the relationship between Ether and Wei. This is the value {ERC20} uses, unless this function is overridden; NOTE: This information is only used for _display_ purposes: it in no way affects any of the arithmetic of the contract, including {IERC20-balanceOf} and {IERC20-transfer}."
      },
      "decreaseAllowance(address,uint256)": {
        "details": "Atomically decreases the allowance granted to `spender` by the caller. This is an alternative to {approve} that can be used as a mitigation for problems described in {IERC20-approve}. Emits an {Approval} event indicating the updated allowance. Requirements: - `spender` cannot be the zero address. - `spender` must have allowance for the caller of at least `subtractedValue`."
      },
      "getRoleAdmin(bytes32)": {
        "details": "Returns the admin role that controls `role`. See {grantRole} and {revokeRole}. To change a role's admin, use {_setRoleAdmin}."
      },
      "grantRole(bytes32,address)": {
        "details": "Grants `role` to `account`. If `account` had not been already granted `role`, emits a {RoleGranted} event. Requirements: - the caller must have ``role``'s admin role. May emit a {RoleGranted} event."
      },
      "hasRole(bytes32,address)": {
        "details": "Returns `true` if `account` has been granted `role`."
      },
      "increaseAllowance(address,uint256)": {
        "details": "Atomically increases the allowance granted to `spender` by the caller. This is an alternative to {approve} that can be used as a mitigation for problems described in {IERC20-approve}. Emits an {Approval} event indicating the updated allowance. Requirements: - `spender` cannot be the zero address."
      },
      "name()": {
        "details": "Returns the name of the token."
      },
      "nonces(address)": {
        "details": "See {IERC20Permit-nonces}."
      },
      "paused()": {
        "details": "Returns true if the contract is paused, and false otherwise."
      },
      "permit(address,address,uint256,uint256,uint8,bytes32,bytes32)": {
        "details": "See {IERC20Permit-permit}."
      },
      "renounceRole(bytes32,address)": {
        "details": "Revokes `role` from the calling account. Roles are often managed via {grantRole} and {revokeRole}: this function's purpose is to provide a mechanism for accounts to lose their privileges if they are compromised (such as when a trusted device is misplaced). If the calling account had been revoked `role`, emits a {RoleRevoked} event. Requirements: - the caller must be `account`. May emit a {RoleRevoked} event."
      },
      "revokeRole(bytes32,address)": {
        "details": "Revokes `role` from `account`. If `account` had been granted `role`, emits a {RoleRevoked} event. Requirements: - the caller must have ``role``'s admin role. May emit a {RoleRevoked} event."
      },
      "supportsInterface(bytes4)": {
        "details": "See {IERC165-supportsInterface}."
      },
      "symbol()": {
        "details": "Returns the symbol of the token, usually a shorter version of the name."
      },
      "totalSupply()": {
        "details": "See {IERC20-totalSupply}."
      },
      "transfer(address,uint256)": {
        "details": "See {IERC20-transfer}. Requirements: - `to` cannot be the zero address. - the caller must have a balance of at least `amount`."
      },
      "transferFrom(address,address,uint256)": {
        "details": "See {IERC20-transferFrom}. Emits an {Approval} event indicating the updated allowance. This is not required by the EIP. See the note at the beginning of {ERC20}. NOTE: Does not update the allowance if the current allowance is the maximum `uint256`. Requirements: - `from` and `to` cannot be the zero address. - `from` must have a balance of at least `amount`. - the caller must have allowance for ``from``'s tokens of at least `amount`."
      }
    },
    "version": 1
  },
  "userdoc": {
    "kind": "user",
    "methods": {},
    "version": 1
  }
}