{
  "contractName": "MetaCoin",
  "abi": [
    {
      "inputs": [],
      "stateMutability": "nonpayable",
      "type": "constructor"
    },
    {
      "anonymous": false,
      "inputs": [
        {
          "indexed": true,
          "internalType": "address",
          "name": "_from",
          "type": "address"
        },
        {
          "indexed": true,
          "internalType": "address",
          "name": "_to",
          "type": "address"
        },
        {
          "indexed": false,
          "internalType": "uint256",
          "name": "_value",
          "type": "uint256"
        }
      ],
      "name": "Transfer",
      "type": "event"
    },
    {
      "inputs": [
        {
          "internalType": "address",
          "name": "sender",
          "type": "address"
        },
        {
          "internalType": "address",
          "name": "receiver",
          "type": "address"
        },
        {
          "internalType": "uint256",
          "name": "amount",
          "type": "uint256"
        }
      ],
      "name": "sendCoin",
      "outputs": [
        {
          "internalType": "bool",
          "name": "sufficient",
          "type": "bool"
        }
      ],
      "stateMutability": "nonpayable",
      "type": "function"
    },
    {
      "inputs": [
        {
          "internalType": "address",
          "name": "addr",
          "type": "address"
        }
      ],
      "name": "getBalanceInEth",
      "outputs": [
        {
          "internalType": "uint256",
          "name": "",
          "type": "uint256"
        }
      ],
      "stateMutability": "view",
      "type": "function",
      "constant": true
    },
    {
      "inputs": [
        {
          "internalType": "address",
          "name": "addr",
          "type": "address"
        }
      ],
      "name": "getBalance",
      "outputs": [
        {
          "internalType": "uint256",
          "name": "",
          "type": "uint256"
        }
      ],
      "stateMutability": "view",
      "type": "function",
      "constant": true
    }
  ],
  "bytecode": "0x608060405234801561001057600080fd5b506127106000803273ffffffffffffffffffffffffffffffffffffffff1673ffffffffffffffffffffffffffffffffffffffff1681526020019081526020016000208190555061063d806100656000396000f3fe608060405234801561001057600080fd5b50600436106100415760003560e01c80630b40bd88146100465780637bd703e814610076578063f8b2cb4f146100a6575b600080fd5b610060600480360381019061005b91906103af565b6100d6565b60405161006d919061041d565b60405180910390f35b610090600480360381019061008b9190610438565b610242565b60405161009d9190610474565b60405180910390f35b6100c060048036038101906100bb9190610438565b6102ce565b6040516100cd9190610474565b60405180910390f35b6000816000808673ffffffffffffffffffffffffffffffffffffffff1673ffffffffffffffffffffffffffffffffffffffff168152602001908152602001600020541015610127576000905061023b565b816000808673ffffffffffffffffffffffffffffffffffffffff1673ffffffffffffffffffffffffffffffffffffffff168152602001908152602001600020600082825461017591906104be565b92505081905550816000808573ffffffffffffffffffffffffffffffffffffffff1673ffffffffffffffffffffffffffffffffffffffff16815260200190815260200160002060008282546101ca91906104f2565b925050819055508273ffffffffffffffffffffffffffffffffffffffff168473ffffffffffffffffffffffffffffffffffffffff167fddf252ad1be2c89b69c2b068fc378daa952ba7f163c4a11628f55a4df523b3ef8460405161022e9190610474565b60405180910390a3600190505b9392505050565b600073__ConvertLib____________________________6396e4ee3d610267846102ce565b60026040518363ffffffff1660e01b815260040161028692919061059c565b602060405180830381865af41580156102a3573d6000803e3d6000fd5b505050506040513d601f19601f820116820180604052508101906102c791906105da565b9050919050565b60008060008373ffffffffffffffffffffffffffffffffffffffff1673ffffffffffffffffffffffffffffffffffffffff168152602001908152602001600020549050919050565b600080fd5b600073ffffffffffffffffffffffffffffffffffffffff82169050919050565b60006103468261031b565b9050919050565b6103568161033b565b811461036157600080fd5b50565b6000813590506103738161034d565b92915050565b6000819050919050565b61038c81610379565b811461039757600080fd5b50565b6000813590506103a981610383565b92915050565b6000806000606084860312156103c8576103c7610316565b5b60006103d686828701610364565b93505060206103e786828701610364565b92505060406103f88682870161039a565b9150509250925092565b60008115159050919050565b61041781610402565b82525050565b6000602082019050610432600083018461040e565b92915050565b60006020828403121561044e5761044d610316565b5b600061045c84828501610364565b91505092915050565b61046e81610379565b82525050565b60006020820190506104896000830184610465565b92915050565b7f4e487b7100000000000000000000000000000000000000000000000000000000600052601160045260246000fd5b60006104c982610379565b91506104d483610379565b9250828210156104e7576104e661048f565b5b828203905092915050565b60006104fd82610379565b915061050883610379565b9250827fffffffffffffffffffffffffffffffffffffffffffffffffffffffffffffffff0382111561053d5761053c61048f565b5b828201905092915050565b61055181610379565b82525050565b6000819050919050565b6000819050919050565b600061058661058161057c84610557565b610561565b610379565b9050919050565b6105968161056b565b82525050565b60006040820190506105b16000830185610548565b6105be602083018461058d565b9392505050565b6000815190506105d481610383565b92915050565b6000602082840312156105f0576105ef610316565b5b60006105fe848285016105c5565b9150509291505056fea26469706673582212202ad81badc114c21c43a054ab93b90e29d8befa35cace8a091ededf8eb374fa1364736f6c634300080d0033",
  "immutableReferences": {},
  "source": "// SPDX-License-Identifier: MIT\n// Tells the Solidity compiler to compile only from v0.8.13 to v0.9.0\npragma solidity ^0.8.13;\n\nimport \"./ConvertLib.sol\";\n\n// This is just a simple example of a coin-like contract.\n// It is not ERC20 compatible and cannot be expected to talk to other\n// coin/token contracts.\n\ncontract MetaCoin {\n\tmapping (address => uint) balances;\n\n\tevent Transfer(address indexed _from, address indexed _to, uint256 _value);\n\n\tconstructor() {\n\t\tbalances[tx.origin] = 10000;\n\t}\n\n\tfunction sendCoin(address sender, address receiver, uint amount) public returns(bool sufficient) {\n\t\tif (balances[sender] < amount) return false;\n\t\tbalances[sender] -= amount;\n\t\tbalances[receiver] += amount;\n\t\temit Transfer(sender, receiver, amount);\n\t\treturn true;\n\t}\n\n\tfunction getBalanceInEth(address addr) public view returns(uint){\n\t\treturn ConvertLib.convert(getBalance(addr),2);\n\t}\n\n\tfunction getBalance(address addr) public view returns(uint) {\n\t\treturn balances[addr];\n\t}\n}\n",
  "sourcePath": "D:\\Projects\\ETH\\MetaCoin\\contracts\\MetaCoin.sol",
  "compiler": {
    "name": "solc",
    "version": "0.8.13+commit.abaa5c0e.Emscripten.clang"
  },
  "schemaVersion": "3.4.10",
  "updatedAt": "2023-01-28T20:36:48.986Z",
  "networkType": "ethereum",
  "devdoc": {
    "kind": "dev",
    "methods": {},
    "version": 1
  },
  "userdoc": {
    "kind": "user",
    "methods": {},
    "version": 1
  }
}